:100000000C9446000C945D000C945D000C945D0013
:100010000C945D000C945D000C945D000C945D00EC
:100020000C945D000C945D000C945D000C945D00DC
:100030000C945D000C945D000C945D000C945D00CC
:100040000C945D000C945D000C945D000C945D00BC
:100050000C945D000C945D000C945D000C945D00AC
:100060000C945D000C945D000C945D000C945D009C
:100070000C945D000C945D000C945D000C945D008C
:100080000C945D000C945D000C945D0011241FBE67
:10009000CFEFD0E4DEBFCDBF11E0A0E0B1E0E8E5F6
:1000A000F2E000E00BBF02C007900D92AE30B10746
:1000B000D9F70E9499000C942A010C940000CF9368
:1000C000DF9300D01F92CDB7DEB789837B836A832D
:1000D00089818A3031F48A819B81BC018DE00E9444
:1000E0005F0080EC90E0FC018081882F90E08072BE
:1000F0009927892BB1F386EC90E02981FC012083BC
:1001000080E090E00F900F900F90DF91CF910895D5
:10011000CF93DF93CDB7DEB78AE790E02AE730E0F0
:10012000F9012081206EFC0120830000DF91CF9136
:100130000895CF93DF9300D01F92CDB7DEB781E251
:1001400090E0FC01108282E290E02FEFFC0120831E
:1001500084E290E02FEFFC01208385E290E0FC0137
:10016000108280E890E09B838A830E94880088E761
:1001700090E020E230E0F9012081222F30E0217070
:100180003327FC013183208388E790E0FC01208144
:1001900031818A819B812817390718F08FEF898375
:1001A00053C088E790E0FC018081918185379105FB
:1001B00018F08FE7898348C088E790E0FC018081D0
:1001C00091818A36910518F08FE389833DC088E7D5
:1001D00090E0FC01808191818F35910518F08FE1CD
:1001E000898332C088E790E0FC0180819181843569
:1001F000910518F08FE0898327C088E790E0FC0123
:10020000808191818934910518F087E089831CC031
:1002100088E790E0FC0180819181CE9718F083E01F
:10022000898312C088E790E0FC0180819181C397A7
:1002300018F081E0898308C088E790E0FC018081A4
:100240009181879708F0198285E290E02981FC016D
:0802500020838DCFF894FFCF4D
:0E02580000000002000000005F000000000037
:00000001FF
